:020000040800F2
:1000000030070020450100080D1000084D0B0008C6
:10001000091000085D07000897190008000000009B
:100020000000000000000000000000007512000841
:1000300061070008000000004D1000085D01000885
:100040005F0100085F0100085F0100085F01000810
:100050005F0100085F0100085F0100085F01000800
:100060005F0100085F0100085F0100085F010008F0
:100070005F0100085F0100085F0100085F010008E0
:100080005F0100085F0100085F0100085F010008D0
:100090005F0100085F0100085F0100085F010008C0
:1000A0005F0100085F0100085F0100085F010008B0
:1000B0002D1500085F0100085F0100085F010008BE
:1000C0005F0100085F0100085F0100085F01000890
:1000D0005F010008D5160008311700085F0100080D
:1000E0005F0100085F0100085F0100085F01000870
:1000F0005F0100085F0100085F0100085F01000860
:100100005F0100085F0100085F0100085F0100084F
:100110005F0100085F0100085F0100085F0100083F
:100120005F0100085F0100085F0100085F0100082F
:10013000DFF80CD000F042FA0048004769240008BC
:10014000300700200648804706480047FEE7FEE7E4
:10015000FEE7FEE7FEE7FEE7FEE7FEE7FEE7FEE777
:10016000CD14000831010008D2B201E000F8012BE3
:10017000491EFBD270470022F6E710B513460A4627
:1001800004461946FFF7F0FF204610BD30B505467E
:100190002A460B4612F8010B13F8014B08B1A04296
:1001A000F8D01CB1002802D06D1CF1E7284630BD04
:1001B000421C10F8011B0029FBD1801A704730B592
:1001C0000B46014600202022012409E021FA02F515
:1001D0009D4205D303FA02F5491B04FA02F52844AF
:1001E000151EA2F10102F1DC30BD2DE9F05F0546DC
:1001F000002092469B4688460646814640241BE0E6
:10020000284641464746224600F0F9F953465A46E9
:10021000C01A914110D311461846224600F0E0F969
:100220002D1A67EB01084F4622460120002100F0FD
:10023000D7F917EB00094E41201EA4F10104DFDCC1
:10024000484631462A464346BDE8F09F2DE9FE4F19
:10025000804681EA0300C00F0C46009021F0004167
:1002600023F00045B8EB0200A94105D240462146E3
:1002700090461C460B46024623F00040104347D0F0
:10028000270DC7F30A00C3F30A510290401A0190E8
:1002900040286BDAC3F3130040F4801B00989246A9
:1002A00020B10023D2EB030A63EB0B0B01985946F4
:1002B000C0F14002504600F093F906460D46504604
:1002C0005946019A00F0ABF910EB08006141002497
:1002D00087EA115284EAE7731A4340D0009A62B366
:1002E000019A012A4FEA075215DC001B61EB02015B
:1002F0004FF0004202EA0752CDE90042001C41F5EE
:10030000801132462B4600F0ABF903B0BDE8F08F08
:1003100040462146F9E7001B61EB0201001C41F554
:10032000801300185B412018A2F5001747EB03016A
:1003300040EAD570B6196D4111E06D084FEA3606F6
:1003400045EAC0754FEA0752001B61EB0201001C31
:1003500041F5801149084FEA3000001951413246F9
:100360002B4603B0BDE8F04F00F06BB900980122B6
:1003700040000023D0EB020263EBE07300982146BB
:100380004FEAE074B8EB000061EB0401E9E783F0A9
:1003900000435BE781F0004158E72DE9FE4F81EA19
:1003A000030404F0004421F0004100944FF0000BDE
:1003B00023F0004350EA01045ED052EA03045BD00C
:1003C000C3F30A54C1F30A552C44A4F2F334019444
:1003D000A0FB0254C1F3130141F48011C3F31303D2
:1003E00043F4801301FB024400FB034E840A970A86
:1003F00044EA815447EA8357A4FB076802958D0AB3
:1004000005FB07854FEA932C04FB0C542705029D3E
:100410004FEA065847EA1637B5EB08056EEB070CAE
:10042000870E920E47EA811742EA8312A7FB020168
:10043000B6EB0B0164EB00042B0D43EA0C335E18A2
:1004400044EB1C50DA465146E7FB0201C5F31304A6
:100450004FEA0B3343EA14534FEA0432019C43EA58
:100460000603A4F10C040294009CCDE900B400F052
:10047000F7F803B0BDE8F08F00200146F9E72DE959
:10048000F04D81EA030404F0004B21F000451446CE
:100490004FF0000A23F0004150EA050220D054EA50
:1004A00001021DD0C5F30A570246C5F31303C1F379
:1004B0001300C1F30A5640F4801543F48013A7EBF0
:1004C0000608101BD64608F2FD3873EB050002D370
:1004D00008F1010801E092185B41B8F1000F03DA5E
:1004E00000200146BDE8F08D00204FF48011064643
:1004F00084460EE0171B73EB050705D3121B63EB55
:10050000050306434CEA010C49084FEA30009218F3
:100510005B4150EA0107EDD152EA030012D082EAB2
:10052000040083EA0501084305D0101BAB4106D245
:100530000122002306E000224FF0004302E06FF0AA
:10054000010253101AEB06004CEB085110EB0A00A5
:1005500041EB0B01BDE8F04D00F073B8C1F30A5256
:10056000C1F3130140F2FF3341F480119A4202DAE1
:1005700000200146704740F233439A42A2F23342D0
:1005800002DC524200F03BB800F02AB830B5041E3D
:1005900071F1000404DB4FF00044404264EB0101C0
:1005A000141E73F1000405DB1C464FF00043524259
:1005B00063EB0403994208BF904230BD064C074DDF
:1005C00006E0E06840F0010394E807009847103423
:1005D000AC42F6D3FFF7B0FD80270008A027000843
:1005E000202A04DB203A00FA02F1002070479140F3
:1005F000C2F1200320FA03F3194390407047202AE8
:1006000004DB203A21FA02F00021704721FA02F3BC
:10061000D040C2F120029140084319467047202A79
:1006200006DBCB17203A41FA02F043EAE07306E01A
:1006300041FA02F3D040C2F120029140084319462A
:10064000704710B5141E73F1000408DA401C41F124
:10065000000192185B411A4301D120F0010010BD46
:100660002DE9F04D92469B4611B1B1FA81F202E0BC
:10067000B0FA80F220329046FFF7B2FF04460F46F0
:1006800040EA0A0041EA0B0153465A46084313D098
:10069000114653EA010019D0C8F140025046FFF755
:1006A000AEFF05460E46504659464246FFF798FFB4
:1006B000084305D0012004E020463946BDE8F08D0E
:1006C0000020054346EAE0762C4337430A98630549
:1006D000E40AA0EB08000022FD0A44EA47540A306D
:1006E00002D500200146E9E7010510196941DDE95D
:1006F000084500196941BDE8F04DA2E71CB5104856
:10070000C07808B10FA000E010A00D49897809B1A8
:100710000CA100E00DA1CDE900100948407808B116
:1007200008A000E009A003460548007808B105A02C
:1007300000E006A002460749074801F02FF91CBD5A
:100740001F000020747275650000000066616C7304
:1007500065000000002700082C00002000BFFEE715
:10076000704710B5044603E04FF47A7000F005F8C6
:100770002000A4F10104F7D110BD00EBC002D100AC
:100780004A1E4FF0E0235A6100229A6105221A6145
:1007900000BF4FF0E022126902F48032002AF8D044
:1007A00004224FF0E0231A6170470000F0B5A1B0B9
:1007B000012000F061FD022000F05EFD4FF4FA70B0
:1007C000FFF7CFFF002715E000204B4908804FF4CA
:1007D00080714A48FFF7CFFC49A1022000F0F4FDE8
:1007E00049A1012000F0F0FD4FF47A70FFF7B9FF46
:1007F000781CC7B2012FE7DD41F2707145A000F00F
:10080000F5F828B944A1012000F0DEFD21B0F0BDCB
:1008100045A1012000F0D8FD0020374908804FF4A1
:1008200080713648FFF7A7FC43A1022000F0CCFD01
:1008300044A1012000F0C8FD4FF47A70FFF791FF4A
:1008400000202D4908804FF480712C48FFF793FC5D
:100850003FA1022000F0B8FD41A1012000F0B4FD4D
:100860004FF49670FFF77DFF0020234908804FF476
:1008700080712248FFF77FFC3DA340A240A101A860
:1008800001F08CF801A9022000F09EFD42A1012098
:1008900000F09AFD00240025002612E043A117482D
:1008A000FFF774FC00B1012444A11448FFF76EFC6B
:1008B00000B101250CB105B107E00A20FFF751FF97
:1008C0000A3642F210708642E8D300BF2CB125B13F
:1008D0003DA1012000F078FD04E03FA1012000F0DF
:1008E00073FD93E70120404908704FF4FA60FFF769
:1008F00038FF00BF8AE700001C0000202C02002007
:1009000041540D0A000000004154B2E2CAD40D0A5D
:10091000000000004F4B00004154B2E2CAD4CAA705
:10092000B0DC0D0A000000004154B2E2CAD4B3C9E1
:10093000B9A60D0A0000000041542B5253540D0A71
:1009400000000000C4A3BFE9B8B4CEBB0D0A00008C
:1009500041542B43574D4F44453D310D0A00000093
:10096000C9E8D6C3535441C4A3CABD0D0A00000050
:100970007A64673230303330323238007A6467005C
:1009800041542B43574A41503D222573222C2225A6
:1009900073220D0A00000000D5FDD4DAC1ACBDD32E
:1009A000576946692E2E2E0D0A0000005749464908
:1009B00020434F4E4E454354454400005749464955
:1009C00020474F542049500057694669C1ACBDD3F8
:1009D000B3C9B9A60D0A000057694669C1ACBDD3B9
:1009E000CAA7B0DC0D0A00001400002070B5044650
:1009F0000D4600260AE021460648FFF7C7FB08B16E
:100A0000012070BD0120FFF7ACFE761CAE42F2D390
:100A10000020F6E72C0200202DE9F04102460025D7
:100A20000026002000230024002791F803C00CF0CA
:100A30000F0591F803C00CF0100CBCF1000F03D0AF
:100A400091F802C04CEA050591F800C0BCF1000F16
:100A500031D0146800202BE04FF0010C0CFA00F3A9
:100A6000B1F800C00CEA03069E4220D183004FF08B
:100A70000F0C0CFA03F7BC4305FA03FC4CEA040420
:100A800091F803C0BCF1280F06D14FF0010C0CFA0D
:100A900000FCC2F814C00AE091F803C0BCF1480F92
:100AA00005D14FF0010C0CFA00FCC2F810C0401C3C
:100AB0000828D1D31460B1F800C0BCF1FF0F34DDB9
:100AC000546800202EE000F1080C4FF0010808FAED
:100AD0000CF3B1F800C00CEA03069E4221D183005A
:100AE0004FF00F0C0CFA03F7BC4305FA03FC4CEA79
:100AF000040491F803C0BCF1280F05D100F1080CE3
:100B000008FA0CF8C2F8148091F803C0BCF1480F41
:100B100007D100F1080C4FF0010808FA0CF8C2F8F0
:100B20001080401C0828CED35460BDE8F0810246F6
:100B3000002093680B400BB1012000E000207047BB
:100B400001480068704700002800002000BFFEE751
:100B500030B5E1B00020534908804FF4807152480D
:100B6000FFF709FB514852A354A256A1009021A8B7
:100B700000F014FF21A9022000F026FC5CA1022055
:100B800000F022FC5BA1012000F01EFC41F270711C
:100B90005DA0FFF72BFF28B95CA1012000F014FC39
:100BA00061B030BD60A1012000F00EFC4FF4FA707E
:100BB000FFF7D7FD00203B4908804FF480713A4889
:100BC000FFF7D9FA5EA1022000F0FEFB67A1012029
:100BD00000F0FAFBFFF7B4FF0446002515E06AA118
:100BE0003148FFF7D3FA08B1012515E06AA12E4874
:100BF000FFF7CCFA20B96CA12B48FFF7C7FA08B170
:100C0000012509E00A20FFF7ACFDFFF799FF001B63
:100C100042F210718842E2D300BF002D2BD065A1B3
:100C2000012000F0D1FB0120684908704FF4FA70F0
:100C3000FFF797FD00201B4908804FF480711A4888
:100C4000FFF799FA62A26FA101A800F0A7FE01A91F
:100C5000022000F0B9FB41F288312BA0FFF7C6FE5D
:100C600020B16EA1012000F0AFFB14E06EA10120C5
:100C700000F0AAFB0FE06FA1012000F0A5FB0A49DC
:100C8000012000F0A1FB1AA1012000F09DFB002033
:100C90004E49087084E74FF4FA60FFF762FD00BF29
:100CA0007EE700001C0000202C02002080260008A7
:100CB0007643526733323663303000004553503844
:100CC0003236360041542B4D5154545553455243FE
:100CD00046473D302C312C222573222C22257322AD
:100CE0002C222573222C302C302C222200000000D4
:100CF0000D0A0000C9E8D6C34D515454D3C3BBA755
:100D0000CAFDBEDD0D0A00004F4B00004D5154548A
:100D1000D3C3BBA7CAFDBEDDC9E8D6C3CAA7B0DC32
:100D2000A3A10D0A000000004D515454D3C3BBA72A
:100D3000CAFDBEDDC9E8D6C3B3C9B9A60D0A000015
:100D400041542B4D515454434F4E4E3D302C226D47
:100D5000717474732E6865636C6F7564732E636F42
:100D60006D222C313838332C310D0A00D5FDD4DA00
:100D7000C1ACBDD34F6E654E4554D4C6C6BDCCA8DC
:100D80002E2E2E0D0A0000002B4D515454434F4E71
:100D90004E45435445443A002B4D515454434F4E15
:100DA0004E3A2030000000002B4D515454434F4E1A
:100DB0004E3A30004D515454D4C6C6BDCCA8C1AC37
:100DC000BDD3B3C9B9A60D0A00000000150000206C
:100DD000247379732F764352673332366330302F62
:100DE000455350383236362F7468696E672F7072EB
:100DF0006F70657274792F706F73742F7265706C79
:100E00007900000041542B4D5154545355423D300C
:100E10002C222573222C300D0A000000B6A9D4C460
:100E2000D5FDB3A30D0A0000B6A9D4C4CAA7B0DC8F
:100E30000D0A0000CFFBCFA2B7A2CBCDCAA7B0DC72
:100E40002000000030B5C1B004463D48007808B924
:100E500041B030BD2046FFF7ABF985B200203949DB
:100E600008804FF480713848FFF785F92B4637A288
:100E700041A101A800F092FD47A1012000F0A4FAD1
:100E800001A9012000F0A0FA47A1012000F09CFA7E
:100E900001A9022000F098FA40F6B83143A0FFF70C
:100EA000A5FD90B942A1012000F08EFA46480078D5
:100EB000401C4549087008460078032804DB0020E0
:100EC0001F49087040490870C2E72146022000F01F
:100ED0007BFA3EA1012000F077FA2146012000F0C4
:100EE00073FA31A1012000F06FFA41F270713CA059
:100EF000FFF77CFD38B13BA1012000F065FA00202E
:100F00003149087019E03BA1012000F05DFA0E495B
:100F1000012000F059FA24A1012000F055FA2A48D6
:100F20000078401C2849087008460078032804DB34
:100F30000020034908702449087000BF88E70000BA
:100F4000150000201C0000202C020020247379735F
:100F50002F764352673332366330302F4553503843
:100F60003236362F7468696E672F70726F706572D3
:100F700074792F706F73740041542B4D5154545039
:100F800055425241573D302C222573222C25642C8A
:100F9000302C300D0A000000B5B1C7B0B7A2CBCDE0
:100FA000D6F7CCE23A2000000D0A00003E00000017
:100FB0005761697420666F7220273E272074696D1F
:100FC000656F75740D0A000016000020B5B1C7B03A
:100FD000B7A2CBCDCAFDBEDDB0FC3A2000000000B8
:100FE0004F4B0000B7A2CBCDB3C9B9A6A3A10D0A40
:100FF00000000000B7A2CBCDCAA7B0DC2C206275E0
:10100000666665723A20000000BFFEE7704700F098
:101010001F02012191404209920002F1E022C2F830
:101020000011704710B5002807DA0A07140E054AA8
:1010300000F00F031B1FD45403E00A07130E024AEB
:10104000135410BD18ED00E000E400E0704700000C
:1010500029B1064AD2690243044BDA6104E0034A2B
:10106000D2698243014BDA617047000000100240F0
:1010700029B1064A92690243044B9A6104E0034A8B
:1010800092698243014B9A61704700000010024050
:1010900030B500210022002400232D4D6D6805F09D
:1010A0000C0121B1042905D0082923D105E0294DDF
:1010B000056022E0274D05601FE0254D6D6805F4B1
:1010C0007012234D6D6805F48034022505EB9242C1
:1010D0001CB9214D554305600BE01D4D6D6805F4AD
:1010E00000351DB11C4D5543056002E0194D5543B7
:1010F000056002E0174D056000BF00BF144D6D682C
:1011000005F0F0010909154D6B5C0568DD4045608F
:101110000F4D6D6805F4E061090A104D6B5C456880
:10112000DD4085600A4D6D6805F46051C90A0B4DBC
:101130006B5C4568DD40C560054D6D6805F4404158
:10114000890B074D6B5CC568B5FBF3F5056130BDD8
:101150000010024000127A0000093D00000000204B
:101160001000002038B5002501211F48FFF7DFFCE3
:1011700008B1012000E000208DF8000002211A488B
:10118000FFF7D5FC08B1012000E000208DF8010038
:1011900020211548FFF7CBFC08B1012000E000201A
:1011A0008DF8020040211048FFF7C1FC08B1012072
:1011B00000E000208DF80300002410E01DF804007A
:1011C0000A49095D884208D01DF8040007490855FE
:1011D0001DF80400064908550125601CC4B2042C02
:1011E000ECDB284638BD0000000C01402300002045
:1011F0001F00002008B501210820FFF739FF6320F8
:10120000ADF8000048208DF8030069460148FFF75B
:1012100003FC08BD000C014010B501211348FFF785
:1012200086FC08B1012000E000201149087002216D
:101230000E48FFF77CFC08B1012000E000200C49BB
:10124000487020210948FFF772FC08B1012000E036
:1012500000200749887040210448FFF768FC08B166
:10126000012000E000200249C87010BD000C0140C0
:101270001F0000207047000038B50446012C2ED115
:10128000012144F20400FFF7F3FE6002ADF8000014
:1012900018208DF8030003208DF8020069462A48C3
:1012A000FFF7BAFBA002ADF8000004208DF80300A0
:1012B00069462548FFF7B0FB4FF4E131234800F0C1
:1012C00080FA012240F22551204800F0CAFA252078
:1012D000FFF79DFE01212520FFF7A4FE32E0022C3E
:1012E00030D101214804FFF7B3FE01210420FFF7AC
:1012F000BFFE0420ADF8000018208DF80300032085
:101300008DF8020069461048FFF786FB0820ADF80B
:10131000000004208DF8030069460B48FFF77CFBB2
:101320004FF4E1310A4800F04CFA012240F2255115
:10133000074800F096FA2620FFF769FE01212620D3
:10134000FFF770FE38BD0000000801400038014082
:10135000004400400FB410B5A2B0044626A8019086
:1013600002A8019A259900F02DFB0020019002A906
:10137000204600F029F822B010BC5DF814FB0000F4
:1013800070B504460D46012C0BD129460C4800F0DF
:10139000FEFA00BF80210A4800F02CFA0028F9D09C
:1013A0000CE0022C0AD12946064800F0F0FA00BFF2
:1013B0008021044800F01EFA0028F9D070BD00001A
:1013C000003801400044004070B505460C4604E07A
:1013D00014F8011B2846FFF7D3FF20780028F7D127
:1013E00070BD10B500F002F810BD00000CB5002073
:1013F000019000903348006840F480303149086023
:1014000000BF3048006800F4003000900198401C94
:101410000190009818B90198B0F5A06FF1D1294852
:10142000006800F4003010B10120009001E00020BD
:1014300000900098012843D12348006840F0100034
:10144000214908600846006820F00300086008464B
:10145000006840F0020008601A4840681949486076
:101460000846406848600846406840F4806048602C
:101470000846406820F47C1048600846406840F404
:10148000E81048600846006840F08070086000BFBF
:101490000C48006800F000700028F9D00948406846
:1014A00020F00300074948600846406840F0020009
:1014B000486000BF0348406800F00C000828F9D1DC
:1014C0000CBD0000001002400020024010B513487F
:1014D000006840F001001149086008464068104962
:1014E00008400E494860084600680E4908400B490C
:1014F00008600846006820F48020086008464068BC
:1015000020F4FE0048604FF41F008860FFF769FF79
:101510004FF000600449086010BD00000010024058
:101520000000FFF8FFFFF6FE08ED00E010B5012116
:10153000880700F01FF840B104480068401C0349C8
:1015400008600121880700F006F810BD280000207F
:10155000CA4302827047CA430282704721B102889F
:1015600042F00102028004E002884FF6FE731A4046
:101570000280704730B50246002000230024158AFF
:1015800005EA0103958905EA010413B10CB10120B4
:1015900000E0002030BD1AB183890B43838102E053
:1015A00083898B4383817047002202881D4B9842B8
:1015B0000ED01D4B98420BD0B0F1804F08D01B4B82
:1015C000984205D01A4B984202D01A4B984204D147
:1015D0004FF68F731A404B881A43174B984207D027
:1015E000164B984204D04FF6FF431A40CB881A435B
:1015F00002808B8883850B8803850A4B98420BD029
:10160000094B984208D00E4B984205D00D4B98429A
:1016100002D00D4B984201D10B7A038601238382BD
:1016200070470000002C01400034014000040040DD
:1016300000080040000C0040001000400014004072
:101640000040014000440140004801403EB50121F6
:101650000846FFF7FDFC40F2E730ADF804004720F4
:10166000ADF800000020ADF80600ADF802006946B4
:101670004FF08040FFF798FF01218807FFF768FFD0
:10168000012211469007FFF786FF1C200121002848
:1016900007DA0A07140E0D4A00F00F031B1FD4547B
:1016A00003E00A07130E0A4A135400BF1C2001214D
:1016B00081404209920002F1E022C2F8001100BF0D
:1016C00001218807FFF74AFF3EBD000018ED00E04A
:1016D00000E400E010B540F22551114800F097F801
:1016E000E0B10F4800F04EF9C4B20E480088FF2860
:1016F0000AD20C4801880088401C0A4A10800A4817
:1017000044540021128881540A2C02D10120074937
:10171000087040F22551024800F038F810BD000072
:1017200000380140180000202C0100201A00002081
:1017300010B540F22551114800F069F8E0B10F48AA
:1017400000F020F9C4B20E480088FF280AD20C48E5
:1017500001880088401C0A4A10800A48445400212D
:10176000128881540A2C02D101200749087040F2E6
:101770002551024800F00AF810BD00000044004066
:101780001C0000202C0200201E00002010B50022AA
:10179000002340F66A14A14200D100BF0A120124BE
:1017A0009440A3B2DC43048010BD21B1828942F48D
:1017B0000052828104E082894DF6FF731A408281D3
:1017C00070477FB505460C4600940020ADF8040034
:1017D000ADF80600ADF80800ADF80C000C20ADF82F
:1017E0000A006946284600F061F801212846FFF703
:1017F000DCFF7FBD02460020B1F5007F00D100BFB5
:1018000013880B400BB1012000E00020704770B539
:101810000246002400230025002040F66A16B1424B
:1018200000D100BFC1F3421501F01F03012606FAE3
:1018300003F3012D02D19689334006E0022D02D137
:10184000168A334001E0968A33400C12012606FACC
:1018500004F41688344013B10CB1012000E00020DC
:1018600070BDF0B50346002400260025002040F698
:101870006A17B94200D100BF1846C1F3421401F003
:101880001F06012707FA06F5012C01D10C3004E0F0
:10189000022C01D1103000E014301AB107682F4338
:1018A000076002E00768AF430760F0BD2DE9F0472D
:1018B00086B005460E460024A24600BFA14600277A
:1018C000B08900B100BF2F462C8A4CF6FF7004404F
:1018D000F08804432C82AC894EF6F3100440B088A3
:1018E00031890843718908430443AC81AC8A4FF6BF
:1018F000FF400440B0890443AC8201A8FFF7C8FB55
:101900001F48874202D1DDF810A001E0DDF80CA0ED
:10191000A88900F4004040B10AEBCA0000EB0A10AD
:1019200031684900B0FBF1F807E00AEBCA0000EBB0
:101930000A1031688900B0FBF1F86420B8FBF0F0C0
:1019400004012009642101FB1089A88900F40040EA
:1019500040B1322000EBC900B0FBF1F000F007000D
:10196000044308E0322000EB09106421B0FBF1F0E1
:1019700000F00F0004432C8106B0BDE8F0870000A2
:101980000038014001468888C0F308007047C1F361
:1019900008028280704700BFFEE700000FB4084BCA
:1019A00010B504A902AA039800F0E0F8044602A9C1
:1019B000002000F04EFD204610BC5DF814FB000036
:1019C0005324000837B514460846064B6A4621469C
:1019D00000F0A8F904466946002000F03FFD2046CB
:1019E0003EBD00005D24000802E008C8121F08C1C7
:1019F000002AFAD170477047002001E001C1121F90
:101A0000002AFBD1704700002DE9FF5FDDE90220CD
:101A1000010DDDF838B0024318D044F61050A1F2A1
:101A2000FF3141430D140F98012820D0A5EB0B0086
:101A3000401C5FEA000A4FF00004474EDFF81C919B
:101A4000A046504616D5CAF1000728E00F98012499
:101A500043A2012808D0002100980F9BC0E9002173
:101A6000C0E90243BDE8FF9F6FEA0B01F4E7CBF149
:101A70000000DEE7074612E0F80707D022463346AB
:101A800040464946FEF789FC804689462246334651
:101A900010461946FEF781FC04460E467F10002FC3
:101AA000EAD1DDE90201BAF1000F42464B4602DA03
:101AB000FEF773FC01E0FEF7E2FC04460E4600224E
:101AC000284BFEF763FD03D84FF0FF30014607E0D7
:101AD0000022254B20463146FEF7B8FBFEF73EFDBF
:101AE000102409E0002C0ADB0A220023FEF77DFB0C
:101AF000019B30321A55641E50EA0102F2D1641C77
:101B0000019AC4F1110314440F9A012A03D001224F
:101B100008430DD10AE0084304D000204FF0110B18
:101B20000F9080E7A3EB0B056D1E0DE05B4504DD18
:101B30004FF0000205F1010504E003DA4FF0000266
:101B4000A5F10105002AECD000980F99C0E90231F7
:101B5000C0E9004586E70000000024400000F03F97
:101B6000300000000000F0430000E03F2DE9FF4F8F
:101B70008BB09A460F460546002606E025280BD076
:101B800052460D9990476D1C761C28780028F5D197
:101B90000FB03046BDE8F08F0024A0460122604916
:101BA00000E0044315F8013F203B02FA03F008422D
:101BB000F7D128782E2817D115F8010F44F0040426
:101BC0002A280ED06FF02F022878A0F130010929C1
:101BD0000AD808EB880102EB410100EB01086D1CFB
:101BE000F2E757F8048B6D1C287869283ED006DC94
:101BF0000028CDD063280BD0642804D136E07328A8
:101C000010D075284BD052460D999047761C85E030
:101C100017F8040B8DF8000000208DF80100E9464C
:101C2000012003E057F8049B4FF0FF3061074FF0AD
:101C3000000401D40AE0641C44450DDA8442FADB56
:101C400019F804100029F6D106E0641C8442FCDB7C
:101C500019F804100029F8D1264404E019F8010B02
:101C600052460D999047641EF8D257E001CF4FF0CD
:101C70000A0B002802DA40422D2102E0210504D59A
:101C80002B218DF82410012103E0E10705D020214C
:101C9000F7E70DF1200908910CE00021F9E701CFE9
:101CA0004FF00A0BF9E75946FEF789FA01F13002C5
:101CB00009F8012D0028F6D1ADEB090000F1200B49
:101CC000600701D44FF00108D84502DDA8EB0B00F6
:101CD00000E000208046002406E009A85246005D8E
:101CE0000D999047641C761C08988442F5DB04E04B
:101CF000302052460D999047761CB8F10001A8F1AA
:101D00000108F5DC05E019F8010B52460D999047E2
:101D1000761CBBF10001ABF1010BF4DC6D1C34E768
:101D2000092801002DE9FF4F95B09B4689460646DC
:101D300000250FE2252877D100242746F84A012103
:101D4000059400E0044316F8013F203B01FA03F03C
:101D50001042F7D130782A2811D06FF02F03307855
:101D6000A0F13002092A16D8059A44F0020402EBC9
:101D7000820203EB42021044761C0590EFE759F80B
:101D8000042B0592002A03DA504244F400540590D3
:101D900044F00204761C30782E2816D116F8010F74
:101DA00044F004042A280DD06FF02F023078A0F1FF
:101DB0003003092B09D807EB870302EB4303C7184D
:101DC000761CF3E759F8047B761C30786C280FD02A
:101DD00006DC4C2817D068280DD06A2814D104E0FE
:101DE000742810D07A280FD10DE044F400140AE0D2
:101DF00044F4801401E044F440147278824202D129
:101E000004F58014761C761C307866280BD013DC21
:101E1000582877D009DC002875D04528F6D0462808
:101E2000F4D047281AD19DE118E0632835D0642802
:101E300079D0652812D195E1702873D008DC672825
:101E4000F1D069286FD06E280DD06F2806D1B5E08B
:101E500073282CD0752875D0782874D05A461799D5
:101E600090476D1C75E1C4F30250022809D0032885
:101E70000DD0D9F8001004280DD00D6009F1040927
:101E800067E1D9F80010EA17C1E90052F6E7D9F87E
:101E900000100D80F2E70D70F0E719F8041B8DF8C3
:101EA000001000208DF80100EA46012003E059F8F7
:101EB00004AB4FF0FF3061074FF0000102D40DE09A
:101EC00008F101018846B9420FDA8045F8DB1AF8BB
:101ED00008100029F4D108E008F101018846814288
:101EE000FADB1AF808100029F6D105985B46A0EB3A
:101EF000080721463846179A00F094FA284400EB68
:101F0000080507E04DE029E10DE01AF8010B5A46FB
:101F100017999047B8F10108F7D25B462146384639
:101F2000179A13E142E00A220092C4F302524FF0E2
:101F3000000A022A08D059F804CB032A4FEAEC71B0
:101F40000AD00DE029E02AE009F1070121F007029B
:101F5000F2E802C1914609E00FFA8CFC4FEAEC71FD
:101F6000042A03D14FFA8CFC4FEAEC71002907DAFE
:101F70000A460021DCF1000C61EB02012D2202E097
:101F8000220504D52B228DF80420012203E0E2076C
:101F900001D02022F7E7904659E00A2102E0102202
:101FA0000DE010214FF0000A00910BE010224FF0DD
:101FB000000A44F004040827009203E008224FF0CE
:101FC000000A0092C4F30252022A05D059F804CB49
:101FD0000021032A08D009E009F1070121F00702D6
:101FE000F2E802C1914605E01FFA8CFC042A01D1F7
:101FF0000CF0FF0C4FF00008220728D5702806D0FF
:10200000009B83F0100353EA0A0305D00EE0402240
:102010008DF80420012208E05CEA010206D030229B
:102020008DF804208DF8050002229046009B83F075
:10203000080353EA0A030AD15CEA010201D16207EC
:1020400005D530228DF804204FF001087F1E582856
:1020500004D034A003900EA802900DE036A0F9E75A
:1020600053466046009AFEF7C0F884460398825CA7
:102070000298401E029002705CEA0100F0D10298C2
:1020800006A9081A00F1200A600702D524F480345A
:1020900000E00127574502DDA7EB0A0000E0002021
:1020A00000EB0A01009005984144401A0590E003B6
:1020B00006D45B462146179A059800F0B3F905440B
:1020C000002706E001A85A46C05D179990476D1C8D
:1020D0007F1C4745F6DBE0030CD55B462146179A8B
:1020E000059800F09FF9054404E030205A461799FE
:1020F00090476D1C0099481E00900029F5DC08E00F
:10210000029802995A460078491C02911799904703
:102110006D1CBAF10001AAF1010AF1DC65E10000D1
:1021200009280100303132333435363738396162AD
:102130006364656600000000303132333435363771
:1021400038394142434445460000000000F058F948
:102150000544761C307800287FF4ECAD19B0284691
:10216000BDE8F08F620700D4062709F1070222F0CC
:10217000070CFCE80223E14603F000485FEA080C84
:1021800002D00FF2702C0DE05FEA045C02D50FF272
:10219000682C07E05FEAC47C02D00FF2602C01E0FB
:1021A000AFF2700C4FF0FF3823F00043CDF850C071
:1021B00065280CD006DC452809D046281DD04728C4
:1021C0003DD13DE0662818D067287ED138E0002157
:1021D000112F01DB112000E0781CCDE9000106A9D8
:1021E0000EA8FFF711FCDDE90F010E9A0391002103
:1021F000009207F1010A04914DE04FF00040009772
:10220000CDE9011006A90EA8FFF7FEFBDDE90F02DC
:1022100003920E9B11990022DDF80CA0009304920A
:1022200011B9791C00EB010AB7EB0A0004D4C0F124
:10223000FF3007F1010A0490AAEB0700019044E087
:10224000012F00DA01270021112F01DD112000E00C
:102250003846CDE9000106A90EA8FFF7D5FBDDE958
:102260000F010E9A0391002104910092BA462107B2
:102270000CD40399514500DA8A46BAF1010F05DD05
:10228000009AAAF10101515C302908D0B84202DA63
:1022900010F1040F06DA0121CDE9011015E0AAF1D1
:1022A0000101E9E7002805DC049901440491AAEB47
:1022B000000102E0411C514500DD8A460499401AA4
:1022C000401C01904FF000400290200704D4019878
:1022D000504501DBCDF8048000208DF84F000298B6
:1022E0000DF14F07B0F1004F25D02B200E90029832
:1022F0004FF0020800280CDA404202902D200E9088
:1023000007E00A210298FDF75AFF3031029007F8E2
:10231000011DB8F10001A8F10108F2DC02980028C3
:10232000EFD1791E0E980870307800F0200040F050
:10233000450007F8020D12A8C01B00F10708149809
:10234000007800B1012000EB0A01019801EBE07177
:1023500005984144401A401E0590E00306D45B46B0
:102360002146179A059800F05DF805441498007806
:1023700018B15A46179990476D1CE00324D55B4667
:102380002146179A059800F04DF805441CE0049882
:10239000002807DBDDE90301884203DD0098405C8B
:1023A000179901E0179930205A469047049805F193
:1023B0000105401C04900198401E019004D12E207C
:1023C0005A46179990476D1CBAF10001AAF1010A0B
:1023D000DDDC05E017F8010B5A46179990476D1C94
:1023E000B8F10001A8F10108F4DC5B462146179A18
:1023F0000598ABE62D0000002B0000002000000037
:102400002DE9F041044600251E461746880404D4F1
:1024100005E039462020B0476D1C641EF9D52846DA
:10242000BDE8F0812DE9F041044600251E469046A6
:10243000C80301D5302700E02027880404D505E033
:1024400041463846B0476D1C641EF9D52846BDE8A4
:10245000F0810A68531C0B60107070470A68531CA7
:102460000B60107070470000002500260027A8466A
:10247000FFF72CF8FFF7EAF8FEF7BCFE0120FEF7A5
:10248000FBFE0220FEF7F8FE42A10120FEF79CFFB2
:10249000FEF78CF94748007828B947A10120FEF7DC
:1024A00093FF00BFFEE7FEF753FB4948007828B9C9
:1024B00048A10120FEF788FF00BFFEE7FEF7ACFE53
:1024C000FEF71CF94AA10120FEF77EFF4C490120CE
:1024D000FEF77AFF45A10120FEF776FF4848FEF798
:1024E000B1FCFEF72DFB0646FEF72AFB054645A18B
:1024F0000120FEF769FF4CE0FEF722FB0446E01BDB
:1025000041F28831884205D32746224642A1012064
:10251000FEF720FFA4EB080042F21071884214D3AA
:10252000A0462B48007880B93FA10120FEF74CFF60
:10253000FEF70EFB2648007838B1FEF76DFEFEF779
:10254000DDF82F48FEF77EFC2646601B64280DD37D
:102550002546FEF707FE48B1FEF7D0F82848FEF7FB
:1025600071FC264639A10120FEF72EFFA01B47F281
:102570003051884209D33AA10120FEF725FF2646B3
:10258000FEF7BCF81E48FEF75DFC0A20FEF7E9F8EE
:1025900000BFB1E70D0A3D3D3DCDBCCAE9B9DDD76D
:1025A000F9CEBBB9DCC0EDCFB5CDB33D3D3D0D0A95
:1025B000000000001400002045535038323636B376
:1025C000F5CABCBBAFCAA7B0DCA3A10D0A000000CE
:1025D000150000204D515454D3C3BBA7D0C5CFA282
:1025E000B3F5CABCBBAFCAA7B0DCA3A10D0A0000FB
:1025F000B3F5CABC6A736F6ECAFDBEDD3A20000037
:102600002C000020456E746572206D61696E206C2F
:102610006F6F700D0A000000B5B1C7B0B6A8CAB19F
:102620003A20256C750D0A004D515454D2D1B6CFC5
:10263000BFAA2C20D5FDD4DAB3A2CAD4D6D8D0C232
:10264000C1ACBDD32E2E2E0D0A000000D2D1B8FC95
:10265000D0C2B5B1C7B0CAFDBEDD0D0A0000000092
:10266000D0C4CCF8B3ACCAB1A3ACD5FDD4DAB7A210
:10267000CBCDC9CFB4CECAFDBEDD2E2E2E0D0A00A5
:1026800076657273696F6E3D323031382D31302D81
:102690003331267265733D70726F64756374732590
:1026A00032467643526733323663303025324664E1
:1026B0006576696365732532464553503832363640
:1026C0002665743D31383036373136323230266D3A
:1026D0006574686F643D6D6435267369676E3D305F
:1026E0002532465850647576396A3625324232733F
:1026F0006A614A42324C3544412533442533440013
:102700007B226964223A2231222C22766572736917
:102710006F6E223A22312E30222C22706172616D4E
:1027200073223A7B22736561745F31223A7B227691
:10273000616C7565223A25737D2C22736561745F27
:1027400032223A7B2276616C7565223A25737D2CA4
:1027500022736561745F33223A7B2276616C756502
:10276000223A25737D2C22736561745F34223A7B93
:102770002276616C7565223A25737D7D7D000000AF
:10278000A0270008000000202C000000E819000825
:10279000CC2700082C00002004070000F8190008CE
:1027A00000000000010203040102030406070809F7
:1027B0000204060800000000000000000000000005
:0C27C000000000FFFFFFFF000000000011
:0400000508000131BD
:00000001FF
